{
  "contractName": "Creditlist",
  "abi": [
    {
      "constant": true,
      "inputs": [],
      "name": "minter",
      "outputs": [
        {
          "name": "",
          "type": "address"
        }
      ],
      "payable": false,
      "stateMutability": "view",
      "type": "function"
    },
    {
      "inputs": [],
      "payable": false,
      "stateMutability": "nonpayable",
      "type": "constructor"
    },
    {
      "anonymous": false,
      "inputs": [
        {
          "indexed": false,
          "name": "newname",
          "type": "string"
        },
        {
          "indexed": false,
          "name": "amount",
          "type": "int256"
        },
        {
          "indexed": false,
          "name": "quanzong",
          "type": "uint256"
        }
      ],
      "name": "information",
      "type": "event"
    },
    {
      "constant": false,
      "inputs": [
        {
          "name": "newname",
          "type": "string"
        }
      ],
      "name": "setname",
      "outputs": [],
      "payable": false,
      "stateMutability": "nonpayable",
      "type": "function"
    },
    {
      "constant": false,
      "inputs": [
        {
          "name": "amount",
          "type": "int256"
        },
        {
          "name": "quanzhong",
          "type": "uint256"
        },
        {
          "name": "newname",
          "type": "string"
        },
        {
          "name": "newnote",
          "type": "string"
        }
      ],
      "name": "write",
      "outputs": [],
      "payable": false,
      "stateMutability": "nonpayable",
      "type": "function"
    },
    {
      "constant": false,
      "inputs": [
        {
          "name": "amount",
          "type": "uint256"
        }
      ],
      "name": "out",
      "outputs": [
        {
          "name": "",
          "type": "string"
        },
        {
          "name": "",
          "type": "uint256"
        },
        {
          "name": "",
          "type": "uint256[]"
        }
      ],
      "payable": false,
      "stateMutability": "nonpayable",
      "type": "function"
    },
    {
      "constant": false,
      "inputs": [],
      "name": "getnum",
      "outputs": [
        {
          "name": "",
          "type": "uint256"
        }
      ],
      "payable": false,
      "stateMutability": "nonpayable",
      "type": "function"
    },
    {
      "constant": false,
      "inputs": [],
      "name": "getaddnum",
      "outputs": [
        {
          "name": "",
          "type": "uint256"
        }
      ],
      "payable": false,
      "stateMutability": "nonpayable",
      "type": "function"
    },
    {
      "constant": false,
      "inputs": [],
      "name": "getrequnum",
      "outputs": [
        {
          "name": "",
          "type": "uint256"
        }
      ],
      "payable": false,
      "stateMutability": "nonpayable",
      "type": "function"
    },
    {
      "constant": false,
      "inputs": [],
      "name": "getevnum",
      "outputs": [
        {
          "name": "",
          "type": "uint256"
        }
      ],
      "payable": false,
      "stateMutability": "nonpayable",
      "type": "function"
    },
    {
      "constant": false,
      "inputs": [],
      "name": "get_sender",
      "outputs": [
        {
          "name": "",
          "type": "address"
        }
      ],
      "payable": false,
      "stateMutability": "nonpayable",
      "type": "function"
    },
    {
      "constant": false,
      "inputs": [],
      "name": "get_minder",
      "outputs": [
        {
          "name": "",
          "type": "address"
        }
      ],
      "payable": false,
      "stateMutability": "nonpayable",
      "type": "function"
    },
    {
      "constant": false,
      "inputs": [
        {
          "name": "amount",
          "type": "uint256"
        }
      ],
      "name": "showev",
      "outputs": [
        {
          "name": "",
          "type": "int256"
        },
        {
          "name": "",
          "type": "uint256"
        },
        {
          "name": "",
          "type": "string"
        }
      ],
      "payable": false,
      "stateMutability": "nonpayable",
      "type": "function"
    },
    {
      "constant": false,
      "inputs": [
        {
          "name": "newname",
          "type": "string"
        },
        {
          "name": "newdepart",
          "type": "uint256"
        },
        {
          "name": "newjob",
          "type": "uint256"
        },
        {
          "name": "newnote",
          "type": "string"
        }
      ],
      "name": "requminer",
      "outputs": [
        {
          "name": "",
          "type": "uint256"
        }
      ],
      "payable": false,
      "stateMutability": "nonpayable",
      "type": "function"
    },
    {
      "constant": false,
      "inputs": [
        {
          "name": "amount",
          "type": "uint256"
        }
      ],
      "name": "addminer",
      "outputs": [
        {
          "name": "",
          "type": "uint256"
        }
      ],
      "payable": false,
      "stateMutability": "nonpayable",
      "type": "function"
    },
    {
      "constant": false,
      "inputs": [
        {
          "name": "amount",
          "type": "uint256"
        }
      ],
      "name": "delereminer",
      "outputs": [
        {
          "name": "",
          "type": "bool"
        }
      ],
      "payable": false,
      "stateMutability": "nonpayable",
      "type": "function"
    },
    {
      "constant": false,
      "inputs": [
        {
          "name": "amount",
          "type": "uint256"
        }
      ],
      "name": "deleminer",
      "outputs": [
        {
          "name": "",
          "type": "bool"
        }
      ],
      "payable": false,
      "stateMutability": "nonpayable",
      "type": "function"
    },
    {
      "constant": false,
      "inputs": [
        {
          "name": "number",
          "type": "uint256"
        }
      ],
      "name": "getaddperson",
      "outputs": [
        {
          "name": "",
          "type": "bool"
        },
        {
          "name": "",
          "type": "string"
        },
        {
          "name": "",
          "type": "address"
        },
        {
          "name": "",
          "type": "uint256"
        },
        {
          "name": "",
          "type": "uint256"
        },
        {
          "name": "",
          "type": "string"
        },
        {
          "name": "",
          "type": "uint256"
        }
      ],
      "payable": false,
      "stateMutability": "nonpayable",
      "type": "function"
    },
    {
      "constant": false,
      "inputs": [
        {
          "name": "number",
          "type": "uint256"
        }
      ],
      "name": "getrequperson",
      "outputs": [
        {
          "name": "",
          "type": "bool"
        },
        {
          "name": "",
          "type": "string"
        },
        {
          "name": "",
          "type": "address"
        },
        {
          "name": "",
          "type": "uint256"
        },
        {
          "name": "",
          "type": "uint256"
        },
        {
          "name": "",
          "type": "string"
        },
        {
          "name": "",
          "type": "uint256"
        }
      ],
      "payable": false,
      "stateMutability": "nonpayable",
      "type": "function"
    }
  ],
  "bytecode": "0x60806040523480156200001157600080fd5b50336000806101000a81548173ffffffffffffffffffffffffffffffffffffffff021916908373ffffffffffffffffffffffffffffffffffffffff160217905550600560c0604051908101604052803373ffffffffffffffffffffffffffffffffffffffff1681526020016040805190810160405280600481526020017f4e6f6e6500000000000000000000000000000000000000000000000000000000815250815260200160008152602001600081526020016040805190810160405280600481526020017f4e6f6e6500000000000000000000000000000000000000000000000000000000815250815260200160018152509080600181540180825580915050906001820390600052602060002090600602016000909192909190915060008201518160000160006101000a81548173ffffffffffffffffffffffffffffffffffffffff021916908373ffffffffffffffffffffffffffffffffffffffff1602179055506020820151816001019080519060200190620001959291906200022a565b5060408201518160020155606082015181600301556080820151816004019080519060200190620001c89291906200022a565b5060a082015181600501555050506040805190810160405280600481526020017f4e6f6e65000000000000000000000000000000000000000000000000000000008152506001908051906020019062000223929190620002b1565b5062000360565b828054600181600116156101000203166002900490600052602060002090601f016020900481019282601f106200026d57805160ff19168380011785556200029e565b828001600101855582156200029e579182015b828111156200029d57825182559160200191906001019062000280565b5b509050620002ad919062000338565b5090565b828054600181600116156101000203166002900490600052602060002090601f016020900481019282601f10620002f457805160ff191683800117855562000325565b8280016001018555821562000325579182015b828111156200032457825182559160200191906001019062000307565b5b50905062000334919062000338565b5090565b6200035d91905b80821115620003595760008160009055506001016200033f565b5090565b90565b61227f80620003706000396000f3006080604052600436106100f1576000357c0100000000000000000000000000000000000000000000000000000000900463ffffffff16806301c08a18146100f657806307546172146101215780632cefeb07146101785780633be7b634146101e15780633f0f4f81146102955780634f6b76db146102ec57806355e11ce7146103175780637d3688731461047c5780637f1316f4146104a75780638885e2241461060c5780638be33c641461063757806395d1ce4f146106fa578063a8d509ff1461073f578063aabe587714610796578063d015e13f146107d7578063e081cf30146108cc578063e96708dc146109a3575b600080fd5b34801561010257600080fd5b5061010b6109e8565b6040518082815260200191505060405180910390f35b34801561012d57600080fd5b506101366109f5565b604051808273ffffffffffffffffffffffffffffffffffffffff1673ffffffffffffffffffffffffffffffffffffffff16815260200191505060405180910390f35b34801561018457600080fd5b506101df600480360381019080803590602001908201803590602001908080601f0160208091040260200160405190810160405280939291908181526020018383808284378201915050505050509192919290505050610a1a565b005b3480156101ed57600080fd5b5061020c60048036038101908080359060200190929190505050610af8565b6040518084815260200183815260200180602001828103825283818151815260200191508051906020019080838360005b8381101561025857808201518184015260208101905061023d565b50505050905090810190601f1680156102855780820380516001836020036101000a031916815260200191505b5094505050505060405180910390f35b3480156102a157600080fd5b506102aa610c84565b604051808273ffffffffffffffffffffffffffffffffffffffff1673ffffffffffffffffffffffffffffffffffffffff16815260200191505060405180910390f35b3480156102f857600080fd5b50610301610cad565b6040518082815260200191505060405180910390f35b34801561032357600080fd5b5061034260048036038101908080359060200190929190505050610cba565b6040518088151515158152602001806020018773ffffffffffffffffffffffffffffffffffffffff1673ffffffffffffffffffffffffffffffffffffffff16815260200186815260200185815260200180602001848152602001838103835289818151815260200191508051906020019080838360005b838110156103d45780820151818401526020810190506103b9565b50505050905090810190601f1680156104015780820380516001836020036101000a031916815260200191505b50838103825285818151815260200191508051906020019080838360005b8381101561043a57808201518184015260208101905061041f565b50505050905090810190601f1680156104675780820380516001836020036101000a031916815260200191505b50995050505050505050505060405180910390f35b34801561048857600080fd5b50610491610f7a565b6040518082815260200191505060405180910390f35b3480156104b357600080fd5b506104d260048036038101908080359060200190929190505050610f87565b6040518088151515158152602001806020018773ffffffffffffffffffffffffffffffffffffffff1673ffffffffffffffffffffffffffffffffffffffff16815260200186815260200185815260200180602001848152602001838103835289818151815260200191508051906020019080838360005b83811015610564578082015181840152602081019050610549565b50505050905090810190601f1680156105915780820380516001836020036101000a031916815260200191505b50838103825285818151815260200191508051906020019080838360005b838110156105ca5780820151818401526020810190506105af565b50505050905090810190601f1680156105f75780820380516001836020036101000a031916815260200191505b50995050505050505050505060405180910390f35b34801561061857600080fd5b50610621611247565b6040518082815260200191505060405180910390f35b34801561064357600080fd5b506106f86004803603810190808035906020019092919080359060200190929190803590602001908201803590602001908080601f0160208091040260200160405190810160405280939291908181526020018383808284378201915050505050509192919290803590602001908201803590602001908080601f0160208091040260200160405190810160405280939291908181526020018383808284378201915050505050509192919290505050611254565b005b34801561070657600080fd5b50610725600480360381019080803590602001909291905050506116fd565b604051808215151515815260200191505060405180910390f35b34801561074b57600080fd5b5061075461186e565b604051808273ffffffffffffffffffffffffffffffffffffffff1673ffffffffffffffffffffffffffffffffffffffff16815260200191505060405180910390f35b3480156107a257600080fd5b506107c160048036038101908080359060200190929190505050611876565b6040518082815260200191505060405180910390f35b3480156107e357600080fd5b5061080260048036038101908080359060200190929190505050611c6c565b604051808060200184815260200180602001838103835286818151815260200191508051906020019080838360005b8381101561084c578082015181840152602081019050610831565b50505050905090810190601f1680156108795780820380516001836020036101000a031916815260200191505b50838103825284818151815260200191508051906020019060200280838360005b838110156108b557808201518184015260208101905061089a565b505050509050019550505050505060405180910390f35b3480156108d857600080fd5b5061098d600480360381019080803590602001908201803590602001908080601f01602080910402602001604051908101604052809392919081815260200183838082843782019150505050505091929192908035906020019092919080359060200190929190803590602001908201803590602001908080601f0160208091040260200160405190810160405280939291908181526020018383808284378201915050505050509192919290505050611e4a565b6040518082815260200191505060405180910390f35b3480156109af57600080fd5b506109ce60048036038101908080359060200190929190505050611f70565b604051808215151515815260200191505060405180910390f35b6000600480549050905090565b6000809054906101000a900473ffffffffffffffffffffffffffffffffffffffff1681565b6000809054906101000a900473ffffffffffffffffffffffffffffffffffffffff1673ffffffffffffffffffffffffffffffffffffffff163373ffffffffffffffffffffffffffffffffffffffff16141515610ade576040517f08c379a000000000000000000000000000000000000000000000000000000000815260040180806020018281038252601c8152602001807f4e6f20726967687420746f2073656520696e666f726d6174696f6e2e0000000081525060200191505060405180910390fd5b8060019080519060200190610af49291906120e1565b5050565b600080606060028054905084101515610b79576040517f08c379a000000000000000000000000000000000000000000000000000000000815260040180806020018281038252601f8152602001807f54686520736561726368206974656d20646f6573206e6f742065786973742e0081525060200191505060405180910390fd5b600284815481101515610b8857fe5b906000526020600020906003020160000154600285815481101515610ba957fe5b906000526020600020906003020160010154600286815481101515610bca57fe5b9060005260206000209060030201600201808054600181600116156101000203166002900480601f016020809104026020016040519081016040528092919081815260200182805460018160011615610100020316600290048015610c705780601f10610c4557610100808354040283529160200191610c70565b820191906000526020600020905b815481529060010190602001808311610c5357829003601f168201915b505050505090509250925092509193909250565b60008060009054906101000a900473ffffffffffffffffffffffffffffffffffffffff16905090565b6000600280549050905090565b6000606060008060006060600060058054905088101515610d43576040517f08c379a000000000000000000000000000000000000000000000000000000000815260040180806020018281038252601f8152602001807f54686520736561726368206974656d20646f6573206e6f742065786973742e0081525060200191505060405180910390fd5b6001600589815481101515610d5457fe5b906000526020600020906006020160010160058a815481101515610d7457fe5b906000526020600020906006020160000160009054906101000a900473ffffffffffffffffffffffffffffffffffffffff1660058b815481101515610db557fe5b90600052602060002090600602016002015460058c815481101515610dd657fe5b90600052602060002090600602016003015460058d815481101515610df757fe5b906000526020600020906006020160040160058e815481101515610e1757fe5b906000526020600020906006020160050154858054600181600116156101000203166002900480601f016020809104026020016040519081016040528092919081815260200182805460018160011615610100020316600290048015610ebe5780601f10610e9357610100808354040283529160200191610ebe565b820191906000526020600020905b815481529060010190602001808311610ea157829003601f168201915b50505050509550818054600181600116156101000203166002900480601f016020809104026020016040519081016040528092919081815260200182805460018160011615610100020316600290048015610f5a5780601f10610f2f57610100808354040283529160200191610f5a565b820191906000526020600020905b815481529060010190602001808311610f3d57829003601f168201915b505050505091509650965096509650965096509650919395979092949650565b6000600380549050905090565b6000606060008060006060600060048054905088101515611010576040517f08c379a000000000000000000000000000000000000000000000000000000000815260040180806020018281038252601f8152602001807f54686520736561726368206974656d20646f6573206e6f742065786973742e0081525060200191505060405180910390fd5b600160048981548110151561102157fe5b906000526020600020906006020160010160048a81548110151561104157fe5b906000526020600020906006020160000160009054906101000a900473ffffffffffffffffffffffffffffffffffffffff1660048b81548110151561108257fe5b90600052602060002090600602016002015460048c8154811015156110a357fe5b90600052602060002090600602016003015460048d8154811015156110c457fe5b906000526020600020906006020160040160048e8154811015156110e457fe5b906000526020600020906006020160050154858054600181600116156101000203166002900480601f01602080910402602001604051908101604052809291908181526020018280546001816001161561010002031660029004801561118b5780601f106111605761010080835404028352916020019161118b565b820191906000526020600020905b81548152906001019060200180831161116e57829003601f168201915b50505050509550818054600181600116156101000203166002900480601f0160208091040260200160405190810160405280929190818152602001828054600181600116156101000203166002900480156112275780601f106111fc57610100808354040283529160200191611227565b820191906000526020600020905b81548152906001019060200180831161120a57829003601f168201915b505050505091509650965096509650965096509650919395979092949650565b6000600580549050905090565b60008060606000925060026060604051908101604052808981526020018881526020018681525090806001815401808255809150509060018203906000526020600020906003020160009091929091909150600082015181600001556020820151816001015560408201518160020190805190602001906112d6929190612161565b50505050600091505b60038054905082101561155457846040516020018082805190602001908083835b6020831015156113255780518252602082019150602081019050602083039250611300565b6001836020036101000a0380198251168184511680821785525050505050509050019150506040516020818303038152906040526040518082805190602001908083835b60208310151561138e5780518252602082019150602081019050602083039250611369565b6001836020036101000a0380198251168184511680821785525050505050509050019150506040518091039020600019166003838154811015156113ce57fe5b9060005260206000209060030201600001604051602001808280546001816001161561010002031660029004801561143d5780601f1061141b57610100808354040283529182019161143d565b820191906000526020600020905b815481529060010190602001808311611429575b50509150506040516020818303038152906040526040518082805190602001908083835b6020831015156114865780518252602082019150602081019050602083039250611461565b6001836020036101000a0380198251168184511680821785525050505050509050019150506040518091039020600019161415611547576003828154811015156114cc57fe5b90600052602060002090600302016002016001600280549050039080600181540180825580915050906001820390600052602060002001600090919290919091505550600160038381548110151561152057fe5b90600052602060002090600302016001016000828254019250508190555060019250611554565b81806001019250506112df565b600083141561164857600160405190808252806020026020018201604052801561158d5781602001602082028038833980820191505090505b5090506001600280549050038160008151811015156115a857fe5b90602001906020020181815250506003606060405190810160405280878152602001600181526020018381525090806001815401808255809150509060018203906000526020600020906003020160009091929091909150600082015181600001908051906020019061161c929190612161565b506020820151816001015560408201518160020190805190602001906116439291906121e1565b505050505b7fa96850c607a6df6fb9f14eb9855bd208070d1ae3ca45835f97745d031c8e93108588886040518080602001848152602001838152602001828103825285818151815260200191508051906020019080838360005b838110156116b857808201518184015260208101905061169d565b50505050905090810190601f1680156116e55780820380516001836020036101000a031916815260200191505b5094505050505060405180910390a150505050505050565b60008060009054906101000a900473ffffffffffffffffffffffffffffffffffffffff1673ffffffffffffffffffffffffffffffffffffffff163373ffffffffffffffffffffffffffffffffffffffff161415156117c3576040517f08c379a000000000000000000000000000000000000000000000000000000000815260040180806020018281038252601c8152602001807f4e6f20726967687420746f2073656520696e666f726d6174696f6e2e0000000081525060200191505060405180910390fd5b6005805490508210151561183f576040517f08c379a000000000000000000000000000000000000000000000000000000000815260040180806020018281038252601f8152602001807f54686520736561726368206974656d20646f6573206e6f742065786973742e0081525060200191505060405180910390fd5b600060058381548110151561185057fe5b90600052602060002090600602016005018190555060019050919050565b600033905090565b60008060009054906101000a900473ffffffffffffffffffffffffffffffffffffffff1673ffffffffffffffffffffffffffffffffffffffff163373ffffffffffffffffffffffffffffffffffffffff1614151561193c576040517f08c379a000000000000000000000000000000000000000000000000000000000815260040180806020018281038252601c8152602001807f4e6f20726967687420746f2073656520696e666f726d6174696f6e2e0000000081525060200191505060405180910390fd5b600480549050821015156119b8576040517f08c379a000000000000000000000000000000000000000000000000000000000815260040180806020018281038252601f8152602001807f54686520736561726368206974656d20646f6573206e6f742065786973742e0081525060200191505060405180910390fd5b600560c0604051908101604052806004858154811015156119d557fe5b906000526020600020906006020160000160009054906101000a900473ffffffffffffffffffffffffffffffffffffffff1673ffffffffffffffffffffffffffffffffffffffff168152602001600485815481101515611a3157fe5b90600052602060002090600602016001018054600181600116156101000203166002900480601f016020809104026020016040519081016040528092919081815260200182805460018160011615610100020316600290048015611ad65780601f10611aab57610100808354040283529160200191611ad6565b820191906000526020600020905b815481529060010190602001808311611ab957829003601f168201915b50505050508152602001600485815481101515611aef57fe5b9060005260206000209060060201600201548152602001600485815481101515611b1557fe5b90600052602060002090600602016003015481526020016040805190810160405280600481526020017f4e6f6e6500000000000000000000000000000000000000000000000000000000815250815260200160018152509080600181540180825580915050906001820390600052602060002090600602016000909192909190915060008201518160000160006101000a81548173ffffffffffffffffffffffffffffffffffffffff021916908373ffffffffffffffffffffffffffffffffffffffff1602179055506020820151816001019080519060200190611bfa929190612161565b5060408201518160020155606082015181600301556080820151816004019080519060200190611c2b929190612161565b5060a082015181600501555050506000600483815481101515611c4a57fe5b9060005260206000209060060201600501819055506005805490509050919050565b60606000606060038054905084101515611cee576040517f08c379a000000000000000000000000000000000000000000000000000000000815260040180806020018281038252601f8152602001807f54686520736561726368206974656d20646f6573206e6f742065786973742e0081525060200191505060405180910390fd5b600384815481101515611cfd57fe5b9060005260206000209060030201600001600385815481101515611d1d57fe5b906000526020600020906003020160010154600386815481101515611d3e57fe5b9060005260206000209060030201600201828054600181600116156101000203166002900480601f016020809104026020016040519081016040528092919081815260200182805460018160011615610100020316600290048015611de45780601f10611db957610100808354040283529160200191611de4565b820191906000526020600020905b815481529060010190602001808311611dc757829003601f168201915b5050505050925080805480602002602001604051908101604052809291908181526020018280548015611e3657602002820191906000526020600020905b815481526020019060010190808311611e22575b505050505090509250925092509193909250565b6000600460c0604051908101604052803373ffffffffffffffffffffffffffffffffffffffff16815260200187815260200186815260200185815260200184815260200160018152509080600181540180825580915050906001820390600052602060002090600602016000909192909190915060008201518160000160006101000a81548173ffffffffffffffffffffffffffffffffffffffff021916908373ffffffffffffffffffffffffffffffffffffffff1602179055506020820151816001019080519060200190611f21929190612161565b5060408201518160020155606082015181600301556080820151816004019080519060200190611f52929190612161565b5060a082015181600501555050506004805490509050949350505050565b60008060009054906101000a900473ffffffffffffffffffffffffffffffffffffffff1673ffffffffffffffffffffffffffffffffffffffff163373ffffffffffffffffffffffffffffffffffffffff16141515612036576040517f08c379a000000000000000000000000000000000000000000000000000000000815260040180806020018281038252601c8152602001807f4e6f20726967687420746f2073656520696e666f726d6174696f6e2e0000000081525060200191505060405180910390fd5b600480549050821015156120b2576040517f08c379a000000000000000000000000000000000000000000000000000000000815260040180806020018281038252601f8152602001807f54686520736561726368206974656d20646f6573206e6f742065786973742e0081525060200191505060405180910390fd5b60006004838154811015156120c357fe5b90600052602060002090600602016005018190555060019050919050565b828054600181600116156101000203166002900490600052602060002090601f016020900481019282601f1061212257805160ff1916838001178555612150565b82800160010185558215612150579182015b8281111561214f578251825591602001919060010190612134565b5b50905061215d919061222e565b5090565b828054600181600116156101000203166002900490600052602060002090601f016020900481019282601f106121a257805160ff19168380011785556121d0565b828001600101855582156121d0579182015b828111156121cf5782518255916020019190600101906121b4565b5b5090506121dd919061222e565b5090565b82805482825590600052602060002090810192821561221d579160200282015b8281111561221c578251825591602001919060010190612201565b5b50905061222a919061222e565b5090565b61225091905b8082111561224c576000816000905550600101612234565b5090565b905600a165627a7a7230582032d0df1c7263a45b7a8a5a05c0f5602a79f9ddbb2c917bd1aacd094e83183d6d0029",
  "source": "pragma solidity >=0.4.22 <0.6.0;\r\n\r\ncontract Creditlist {\r\n    address public minter;//\r\n    // uint num;//\r\n    // uint requ_num;//\r\n    // uint add_num;//\r\n    string self_name;//id\r\n    \r\n    ev[] evlist;\r\n    person[] persons;//\r\n    requ_person[] requ_persons;//\r\n    requ_person[] add_persons;//\r\n    //\r\n    struct person {\r\n        string name;//\r\n        // uint content;//\r\n        uint num;\r\n        uint[] list;\r\n    }\r\n    \r\n    struct ev {\r\n        int content;//\r\n        uint power;//\r\n        string note;//\r\n    }\r\n    \r\n    struct requ_person {\r\n        address id;//\r\n        string name;//\r\n        uint depart;//\r\n        uint job;//\r\n        string note;//\r\n        uint boo;//\r\n    }\r\n    //\r\n    constructor() public{\r\n        minter = msg.sender;\r\n        // num = 0;\r\n        // requ_num = 0;\r\n        // add_num = 1;\r\n        //\r\n        add_persons.push(requ_person({\r\n            id:msg.sender,\r\n            name: \"None\",\r\n            depart: 0,\r\n            job: 0,\r\n            note:\"None\",\r\n            boo:1\r\n        }));\r\n        self_name = \"None\";\r\n    }\r\n    //\r\n    event information(string newname,int amount,uint quanzong);\r\n    //id\r\n    function setname(string memory newname) public {\r\n        require(msg.sender == minter,\r\n        \"No right to see information.\");\r\n        self_name = newname;\r\n    }\r\n    //\r\n    function write(int amount, uint quanzhong,string memory newname,string memory newnote) public {\r\n        uint b=0;\r\n        // require(msg.sender == minter,\r\n        // \"No right to see information.\");\r\n        evlist.push(ev({\r\n            content:amount,\r\n            power: quanzhong,\r\n            note: newnote\r\n        }));\r\n        for(uint p = 0;p<persons.length;p++){\r\n            if(keccak256(abi.encodePacked(persons[p].name)) == keccak256(abi.encodePacked(newname))){\r\n              persons[p].list.push(evlist.length-1);\r\n              persons[p].num += 1;\r\n            //   persons[p].content += amount*quanzhong;\r\n              b=1;\r\n              break;\r\n            }\r\n        }\r\n        if(b == 0){\r\n            uint[] memory newlist;\r\n            newlist = new uint[](1);\r\n            newlist[0] = evlist.length-1;\r\n            persons.push(person({\r\n                name: newname,\r\n                // content: amount*quanzhong,\r\n                num: 1,\r\n                list: newlist\r\n            }));\r\n            //persons[persons.length-1].list.push(evlist.length-1);\r\n        }\r\n        emit information(newname,amount,quanzhong);\r\n    }\r\n    //\r\n    function out(uint amount) public returns (string memory,uint,uint[] memory){\r\n        // uint b=0;\r\n        // //\r\n        // for(uint p = 0;p<add_persons.length;p++){\r\n        //     if(add_persons[p].id == msg.sender){\r\n        //       b = 1;\r\n        //       break;\r\n        //     }\r\n        // }\r\n        // require(b == 1,\r\n        // \"No right to see information.\");\r\n        // //\r\n        require(amount <persons.length,\r\n        \"The search item does not exist.\");\r\n        return (persons[amount].name,persons[amount].num,persons[amount].list);\r\n    }\r\n    //\r\n    function getnum() public returns(uint){\r\n        return persons.length;\r\n    }\r\n    //\r\n    function getaddnum() public returns(uint){\r\n        return add_persons.length;\r\n    }\r\n    //\r\n    function getrequnum() public returns(uint){\r\n        return requ_persons.length;\r\n    }\r\n    //  \r\n    // function getanswwer(string memory input) public returns(bool,uint,uint){\r\n    //     require(msg.sender == minter,\r\n    //     \"No right to see information.\");\r\n    //     for(uint p = 0;p<persons.length;p++){\r\n    //         if(keccak256(abi.encodePacked(persons[p].name)) == keccak256(abi.encodePacked(input))){\r\n    //             return (true,p,persons[p].content);\r\n    //         }\r\n    //     }\r\n    //     return (false,0,0);\r\n    // }\r\n    function getevnum() public returns(uint){\r\n        return evlist.length;\r\n    }\r\n    function get_sender() public returns(address){\r\n        return msg.sender;\r\n    }\r\n    function get_minder() public returns(address){\r\n        return minter;\r\n    }\r\n    function showev(uint amount) public returns (int,uint,string memory){\r\n        // uint b=0;\r\n        // //\r\n        // for(uint p = 0;p<add_persons.length;p++){\r\n        //     if(add_persons[p].id == msg.sender){\r\n        //       b = 1;\r\n        //       break;\r\n        //     }\r\n        // }\r\n        // require(b == 1,\r\n        // \"No right to see information.\");\r\n        //\r\n        require(amount <evlist.length,\r\n        \"The search item does not exist.\");\r\n        return (evlist[amount].content,evlist[amount].power,evlist[amount].note);\r\n    }\r\n    //\r\n    function requminer(string memory newname,uint newdepart,uint newjob,string memory newnote) public returns(uint){\r\n        // require(msg.sender != minter,\r\n        // \"You have permission, no need to apply for additions.\");\r\n        requ_persons.push(requ_person({\r\n            id: msg.sender,\r\n            name: newname,\r\n            depart: newdepart,\r\n            job: newjob,\r\n            note: newnote,\r\n            boo: 1\r\n        }));\r\n        //requ_num=requ_num+1;\r\n        return requ_persons.length;\r\n    }\r\n    //\r\n    function addminer(uint amount) public returns(uint){\r\n        require(msg.sender == minter,\r\n        \"No right to see information.\");\r\n        //\r\n        require(amount <requ_persons.length,\r\n        \"The search item does not exist.\");\r\n        //\r\n        add_persons.push(requ_person({\r\n            id: requ_persons[amount].id,\r\n            name: requ_persons[amount].name,\r\n            depart: requ_persons[amount].depart,\r\n            job: requ_persons[amount].job,\r\n            note: \"None\",\r\n            boo: 1\r\n        }));\r\n        requ_persons[amount].boo = 0;\r\n        // add_num=add_num+1;\r\n        return add_persons.length;\r\n    }\r\n    function delereminer(uint amount) public returns(bool){\r\n        require(msg.sender == minter,\r\n        \"No right to see information.\");\r\n        //\r\n        require(amount <requ_persons.length,\r\n        \"The search item does not exist.\");\r\n        requ_persons[amount].boo = 0;\r\n        return true;\r\n    }\r\n    function deleminer(uint amount) public returns(bool){\r\n        require(msg.sender == minter,\r\n        \"No right to see information.\");\r\n        //\r\n        require(amount <add_persons.length,\r\n        \"The search item does not exist.\");\r\n        add_persons[amount].boo = 0;\r\n        return true;\r\n    }\r\n    //\r\n    function getaddperson(uint number) public returns(bool,string memory,address,uint,uint,string memory,uint){\r\n         require(number <add_persons.length,\r\n        \"The search item does not exist.\");\r\n         return (true,add_persons[number].name,add_persons[number].id,add_persons[number].depart,add_persons[number].job,add_persons[number].note,add_persons[number].boo);\r\n    }\r\n    function getrequperson(uint number) public returns(bool,string memory,address,uint,uint,string memory,uint){\r\n         require(number <requ_persons.length,\r\n        \"The search item does not exist.\");\r\n         return (true,requ_persons[number].name,requ_persons[number].id,requ_persons[number].depart,requ_persons[number].job,requ_persons[number].note,requ_persons[number].boo);\r\n    }\r\n}",
  "sourcePath": "C:\\Users\\lutianchi\\Desktop\\a\\contracts\\Creditlist.sol",
  "compiler": {
    "name": "solc",
    "version": "0.4.25+commit.59dbf8f1.Emscripten.clang"
  },
  "schemaVersion": "2.0.2",
  "updatedAt": "2019-01-11T05:50:29.866Z"
}