{
  "contractName": "InfoContract",
  "abi": [
    {
      "anonymous": false,
      "inputs": [
        {
          "indexed": false,
          "name": "name",
          "type": "string"
        },
        {
          "indexed": false,
          "name": "age",
          "type": "uint256"
        }
      ],
      "name": "Instructor",
      "type": "event"
    },
    {
      "constant": false,
      "inputs": [
        {
          "name": "_name",
          "type": "string"
        },
        {
          "name": "_age",
          "type": "uint256"
        }
      ],
      "name": "setInfo",
      "outputs": [],
      "payable": false,
      "stateMutability": "nonpayable",
      "type": "function"
    },
    {
      "constant": true,
      "inputs": [],
      "name": "getInfo",
      "outputs": [
        {
          "name": "",
          "type": "string"
        },
        {
          "name": "",
          "type": "uint256"
        }
      ],
      "payable": false,
      "stateMutability": "view",
      "type": "function"
    }
  ],
  "bytecode": "0x608060405234801561001057600080fd5b506103be806100206000396000f30060806040526004361061004c576000357c0100000000000000000000000000000000000000000000000000000000900463ffffffff1680635a9b0b89146100515780638262963b146100e8575b600080fd5b34801561005d57600080fd5b5061006661015b565b6040518080602001838152602001828103825284818151815260200191508051906020019080838360005b838110156100ac578082015181840152602081019050610091565b50505050905090810190601f1680156100d95780820380516001836020036101000a031916815260200191505b50935050505060405180910390f35b3480156100f457600080fd5b50610159600480360381019080803590602001908201803590602001908080601f016020809104026020016040519081016040528093929190818152602001838380828437820191505050505050919291929080359060200190929190505050610207565b005b6060600080600154818054600181600116156101000203166002900480601f0160208091040260200160405190810160405280929190818152602001828054600181600116156101000203166002900480156101f85780601f106101cd576101008083540402835291602001916101f8565b820191906000526020600020905b8154815290600101906020018083116101db57829003601f168201915b50505050509150915091509091565b816000908051906020019061021d9291906102ed565b50806001819055507f010becc10ca1475887c4ec429def1ccc2e9ea1713fe8b0d4e9a1d009042f6b8e600060015460405180806020018381526020018281038252848181546001816001161561010002031660029004815260200191508054600181600116156101000203166002900480156102da5780601f106102af576101008083540402835291602001916102da565b820191906000526020600020905b8154815290600101906020018083116102bd57829003601f168201915b5050935050505060405180910390a15050565b828054600181600116156101000203166002900490600052602060002090601f016020900481019282601f1061032e57805160ff191683800117855561035c565b8280016001018555821561035c579182015b8281111561035b578251825591602001919060010190610340565b5b509050610369919061036d565b5090565b61038f91905b8082111561038b576000816000905550600101610373565b5090565b905600a165627a7a72305820567c7e9640274063da4e24c755ed34f2471df6891877ba990312b547bc232d320029",
  "source": "pragma solidity ^0.4.24;\r\n\r\ncontract InfoContract {\r\n\r\n    string name;\r\n\r\n    uint age;\r\n\r\n    event Instructor(string name, uint age);\r\n\r\n    function setInfo(string _name, uint _age) public {\r\n\r\n        name = _name;\r\n\r\n        age = _age;\r\n\r\n        emit Instructor(name, age);\r\n\r\n    } \r\n\r\n   function getInfo() public view returns(string, uint) {\r\n\r\n        return (name, age);\r\n\r\n    }\r\n\r\n}\r\n",
  "sourcePath": "C:\\Users\\lutianchi\\Desktop\\a\\contracts\\InfoContract.sol",
  "compiler": {
    "name": "solc",
    "version": "0.4.25+commit.59dbf8f1.Emscripten.clang"
  },
  "schemaVersion": "2.0.2",
  "updatedAt": "2019-01-11T05:50:29.368Z"
}